{
  "_format": "hh-sol-artifact-1",
  "contractName": "EternalNFT",
  "sourceName": "contracts/EternalNFT.sol",
  "abi": [
    {
      "inputs": [],
      "stateMutability": "nonpayable",
      "type": "constructor"
    },
    {
      "anonymous": false,
      "inputs": [
        {
          "indexed": true,
          "internalType": "address",
          "name": "owner",
          "type": "address"
        },
        {
          "indexed": true,
          "internalType": "address",
          "name": "approved",
          "type": "address"
        },
        {
          "indexed": true,
          "internalType": "uint256",
          "name": "tokenId",
          "type": "uint256"
        }
      ],
      "name": "Approval",
      "type": "event"
    },
    {
      "anonymous": false,
      "inputs": [
        {
          "indexed": true,
          "internalType": "address",
          "name": "owner",
          "type": "address"
        },
        {
          "indexed": true,
          "internalType": "address",
          "name": "operator",
          "type": "address"
        },
        {
          "indexed": false,
          "internalType": "bool",
          "name": "approved",
          "type": "bool"
        }
      ],
      "name": "ApprovalForAll",
      "type": "event"
    },
    {
      "anonymous": false,
      "inputs": [
        {
          "indexed": false,
          "internalType": "uint256",
          "name": "_fromTokenId",
          "type": "uint256"
        },
        {
          "indexed": false,
          "internalType": "uint256",
          "name": "_toTokenId",
          "type": "uint256"
        }
      ],
      "name": "BatchMetadataUpdate",
      "type": "event"
    },
    {
      "anonymous": false,
      "inputs": [
        {
          "indexed": false,
          "internalType": "uint256",
          "name": "_tokenId",
          "type": "uint256"
        }
      ],
      "name": "MetadataUpdate",
      "type": "event"
    },
    {
      "anonymous": false,
      "inputs": [
        {
          "indexed": true,
          "internalType": "address",
          "name": "from",
          "type": "address"
        },
        {
          "indexed": true,
          "internalType": "address",
          "name": "to",
          "type": "address"
        },
        {
          "indexed": true,
          "internalType": "uint256",
          "name": "tokenId",
          "type": "uint256"
        }
      ],
      "name": "Transfer",
      "type": "event"
    },
    {
      "inputs": [
        {
          "internalType": "address",
          "name": "to",
          "type": "address"
        },
        {
          "internalType": "uint256",
          "name": "tokenId",
          "type": "uint256"
        }
      ],
      "name": "approve",
      "outputs": [],
      "stateMutability": "nonpayable",
      "type": "function"
    },
    {
      "inputs": [
        {
          "internalType": "address",
          "name": "owner",
          "type": "address"
        }
      ],
      "name": "balanceOf",
      "outputs": [
        {
          "internalType": "uint256",
          "name": "",
          "type": "uint256"
        }
      ],
      "stateMutability": "view",
      "type": "function"
    },
    {
      "inputs": [],
      "name": "collectionName",
      "outputs": [
        {
          "internalType": "string",
          "name": "",
          "type": "string"
        }
      ],
      "stateMutability": "view",
      "type": "function"
    },
    {
      "inputs": [],
      "name": "collectionSymbol",
      "outputs": [
        {
          "internalType": "string",
          "name": "",
          "type": "string"
        }
      ],
      "stateMutability": "view",
      "type": "function"
    },
    {
      "inputs": [],
      "name": "createEternalNFT",
      "outputs": [
        {
          "internalType": "uint256",
          "name": "",
          "type": "uint256"
        }
      ],
      "stateMutability": "nonpayable",
      "type": "function"
    },
    {
      "inputs": [
        {
          "internalType": "uint256",
          "name": "tokenId",
          "type": "uint256"
        }
      ],
      "name": "getApproved",
      "outputs": [
        {
          "internalType": "address",
          "name": "",
          "type": "address"
        }
      ],
      "stateMutability": "view",
      "type": "function"
    },
    {
      "inputs": [
        {
          "internalType": "address",
          "name": "owner",
          "type": "address"
        },
        {
          "internalType": "address",
          "name": "operator",
          "type": "address"
        }
      ],
      "name": "isApprovedForAll",
      "outputs": [
        {
          "internalType": "bool",
          "name": "",
          "type": "bool"
        }
      ],
      "stateMutability": "view",
      "type": "function"
    },
    {
      "inputs": [],
      "name": "name",
      "outputs": [
        {
          "internalType": "string",
          "name": "",
          "type": "string"
        }
      ],
      "stateMutability": "view",
      "type": "function"
    },
    {
      "inputs": [
        {
          "internalType": "uint256",
          "name": "tokenId",
          "type": "uint256"
        }
      ],
      "name": "ownerOf",
      "outputs": [
        {
          "internalType": "address",
          "name": "",
          "type": "address"
        }
      ],
      "stateMutability": "view",
      "type": "function"
    },
    {
      "inputs": [
        {
          "internalType": "uint256",
          "name": "tokenId",
          "type": "uint256"
        }
      ],
      "name": "pickFirstWord",
      "outputs": [
        {
          "internalType": "string",
          "name": "",
          "type": "string"
        }
      ],
      "stateMutability": "view",
      "type": "function"
    },
    {
      "inputs": [
        {
          "internalType": "uint256",
          "name": "tokenId",
          "type": "uint256"
        }
      ],
      "name": "pickSecondWord",
      "outputs": [
        {
          "internalType": "string",
          "name": "",
          "type": "string"
        }
      ],
      "stateMutability": "view",
      "type": "function"
    },
    {
      "inputs": [
        {
          "internalType": "uint256",
          "name": "tokenId",
          "type": "uint256"
        }
      ],
      "name": "pickThirdWord",
      "outputs": [
        {
          "internalType": "string",
          "name": "",
          "type": "string"
        }
      ],
      "stateMutability": "view",
      "type": "function"
    },
    {
      "inputs": [
        {
          "internalType": "address",
          "name": "from",
          "type": "address"
        },
        {
          "internalType": "address",
          "name": "to",
          "type": "address"
        },
        {
          "internalType": "uint256",
          "name": "tokenId",
          "type": "uint256"
        }
      ],
      "name": "safeTransferFrom",
      "outputs": [],
      "stateMutability": "nonpayable",
      "type": "function"
    },
    {
      "inputs": [
        {
          "internalType": "address",
          "name": "from",
          "type": "address"
        },
        {
          "internalType": "address",
          "name": "to",
          "type": "address"
        },
        {
          "internalType": "uint256",
          "name": "tokenId",
          "type": "uint256"
        },
        {
          "internalType": "bytes",
          "name": "data",
          "type": "bytes"
        }
      ],
      "name": "safeTransferFrom",
      "outputs": [],
      "stateMutability": "nonpayable",
      "type": "function"
    },
    {
      "inputs": [
        {
          "internalType": "address",
          "name": "operator",
          "type": "address"
        },
        {
          "internalType": "bool",
          "name": "approved",
          "type": "bool"
        }
      ],
      "name": "setApprovalForAll",
      "outputs": [],
      "stateMutability": "nonpayable",
      "type": "function"
    },
    {
      "inputs": [
        {
          "internalType": "bytes4",
          "name": "interfaceId",
          "type": "bytes4"
        }
      ],
      "name": "supportsInterface",
      "outputs": [
        {
          "internalType": "bool",
          "name": "",
          "type": "bool"
        }
      ],
      "stateMutability": "view",
      "type": "function"
    },
    {
      "inputs": [],
      "name": "symbol",
      "outputs": [
        {
          "internalType": "string",
          "name": "",
          "type": "string"
        }
      ],
      "stateMutability": "view",
      "type": "function"
    },
    {
      "inputs": [
        {
          "internalType": "uint256",
          "name": "tokenId",
          "type": "uint256"
        }
      ],
      "name": "tokenURI",
      "outputs": [
        {
          "internalType": "string",
          "name": "",
          "type": "string"
        }
      ],
      "stateMutability": "view",
      "type": "function"
    },
    {
      "inputs": [
        {
          "internalType": "address",
          "name": "from",
          "type": "address"
        },
        {
          "internalType": "address",
          "name": "to",
          "type": "address"
        },
        {
          "internalType": "uint256",
          "name": "tokenId",
          "type": "uint256"
        }
      ],
      "name": "transferFrom",
      "outputs": [],
      "stateMutability": "nonpayable",
      "type": "function"
    }
  ],
  "bytecode": "0x608060405260405180610160016040528061012f8152602001620043f261012f9139600a908162000031919062000ae0565b506040518060e001604052806040518060400160405280600481526020017f466972650000000000000000000000000000000000000000000000000000000081525081526020016040518060400160405280600481526020017f57696e640000000000000000000000000000000000000000000000000000000081525081526020016040518060400160405280600481526020017f576176650000000000000000000000000000000000000000000000000000000081525081526020016040518060400160405280600581526020017f456172746800000000000000000000000000000000000000000000000000000081525081526020016040518060400160405280600781526020017f5468756e6465720000000000000000000000000000000000000000000000000081525081526020016040518060400160405280600581526020017f537061636500000000000000000000000000000000000000000000000000000081525081526020016040518060400160405280600481526020017f54696d6500000000000000000000000000000000000000000000000000000000815250815250600b906007620001ea92919062000779565b506040518060e001604052806040518060400160405280600581526020017f53776f726400000000000000000000000000000000000000000000000000000081525081526020016040518060400160405280600581526020017f537065617200000000000000000000000000000000000000000000000000000081525081526020016040518060400160405280600681526020017f536869656c64000000000000000000000000000000000000000000000000000081525081526020016040518060400160405280600681526020017f48616d6d6572000000000000000000000000000000000000000000000000000081525081526020016040518060400160405280600581526020017f536162657200000000000000000000000000000000000000000000000000000081525081526020016040518060400160405280600381526020017f417865000000000000000000000000000000000000000000000000000000000081525081526020016040518060400160405280600381526020017f426f770000000000000000000000000000000000000000000000000000000000815250815250600c906007620003a392919062000779565b506040518060e001604052806040518060400160405280600481526020017f4c6f72640000000000000000000000000000000000000000000000000000000081525081526020016040518060400160405280600481526020017f4b696e670000000000000000000000000000000000000000000000000000000081525081526020016040518060400160405280600781526020017f456d7065726f720000000000000000000000000000000000000000000000000081525081526020016040518060400160405280600981526020017f56656e657261626c65000000000000000000000000000000000000000000000081525081526020016040518060400160405280600881526020017f416e636573746f7200000000000000000000000000000000000000000000000081525081526020016040518060400160405280600581526020017f5361696e7400000000000000000000000000000000000000000000000000000081525081526020016040518060400160405280600381526020017f476f640000000000000000000000000000000000000000000000000000000000815250815250600d9060076200055c92919062000779565b503480156200056a57600080fd5b506040518060400160405280600a81526020017f457465726e616c4e4654000000000000000000000000000000000000000000008152506040518060400160405280600481526020017f474e4654000000000000000000000000000000000000000000000000000000008152508160009081620005e8919062000ae0565b508060019081620005fa919062000ae0565b5050506200060d6200064560201b60201c565b600890816200061d919062000ae0565b506200062e620006df60201b60201c565b600990816200063e919062000ae0565b5062000bc7565b6060600080546200065690620008cf565b80601f01602080910402602001604051908101604052809291908181526020018280546200068490620008cf565b8015620006d55780601f10620006a957610100808354040283529160200191620006d5565b820191906000526020600020905b815481529060010190602001808311620006b757829003601f168201915b5050505050905090565b606060018054620006f090620008cf565b80601f01602080910402602001604051908101604052809291908181526020018280546200071e90620008cf565b80156200076f5780601f1062000743576101008083540402835291602001916200076f565b820191906000526020600020905b8154815290600101906020018083116200075157829003601f168201915b5050505050905090565b828054828255906000526020600020908101928215620007c6579160200282015b82811115620007c5578251829081620007b4919062000ae0565b50916020019190600101906200079a565b5b509050620007d59190620007d9565b5090565b5b80821115620007fd5760008181620007f3919062000801565b50600101620007da565b5090565b5080546200080f90620008cf565b6000825580601f1062000823575062000844565b601f01602090049060005260206000209081019062000843919062000847565b5b50565b5b808211156200086257600081600090555060010162000848565b5090565b600081519050919050565b7f4e487b7100000000000000000000000000000000000000000000000000000000600052604160045260246000fd5b7f4e487b7100000000000000000000000000000000000000000000000000000000600052602260045260246000fd5b60006002820490506001821680620008e857607f821691505b602082108103620008fe57620008fd620008a0565b5b50919050565b60008190508160005260206000209050919050565b60006020601f8301049050919050565b600082821b905092915050565b600060088302620009687fffffffffffffffffffffffffffffffffffffffffffffffffffffffffffffffff8262000929565b62000974868362000929565b95508019841693508086168417925050509392505050565b6000819050919050565b6000819050919050565b6000620009c1620009bb620009b5846200098c565b62000996565b6200098c565b9050919050565b6000819050919050565b620009dd83620009a0565b620009f5620009ec82620009c8565b84845462000936565b825550505050565b600090565b62000a0c620009fd565b62000a19818484620009d2565b505050565b5b8181101562000a415762000a3560008262000a02565b60018101905062000a1f565b5050565b601f82111562000a905762000a5a8162000904565b62000a658462000919565b8101602085101562000a75578190505b62000a8d62000a848562000919565b83018262000a1e565b50505b505050565b600082821c905092915050565b600062000ab56000198460080262000a95565b1980831691505092915050565b600062000ad0838362000aa2565b9150826002028217905092915050565b62000aeb8262000866565b67ffffffffffffffff81111562000b075762000b0662000871565b5b62000b138254620008cf565b62000b2082828562000a45565b600060209050601f83116001811462000b58576000841562000b43578287015190505b62000b4f858262000ac2565b86555062000bbf565b601f19841662000b688662000904565b60005b8281101562000b925784890151825560018201915060208501945060208101905062000b6b565b8683101562000bb2578489015162000bae601f89168262000aa2565b8355505b6001600288020188555050505b505050505050565b61381b8062000bd76000396000f3fe608060405234801561001057600080fd5b50600436106101215760003560e01c80636352211e116100ad578063c630338611610071578063c63033861461031a578063c87b56dd1461034a578063e2d2c3081461037a578063e5326ab1146103aa578063e985e9c5146103c857610121565b80636352211e1461026457806370a082311461029457806395d89b41146102c4578063a22cb465146102e2578063b88d4fde146102fe57610121565b806323b872dd116100f457806323b872dd146101c05780632f39352a146101dc5780633330880e146101fa5780633bad0d361461021857806342842e0e1461024857610121565b806301ffc9a71461012657806306fdde0314610156578063081812fc14610174578063095ea7b3146101a4575b600080fd5b610140600480360381019061013b91906121de565b6103f8565b60405161014d9190612226565b60405180910390f35b61015e610459565b60405161016b91906122d1565b60405180910390f35b61018e60048036038101906101899190612329565b6104eb565b60405161019b9190612397565b60405180910390f35b6101be60048036038101906101b991906123de565b610531565b005b6101da60048036038101906101d5919061241e565b610648565b005b6101e46106a8565b6040516101f191906122d1565b60405180910390f35b610202610736565b60405161020f9190612480565b60405180910390f35b610232600480360381019061022d9190612329565b610845565b60405161023f91906122d1565b60405180910390f35b610262600480360381019061025d919061241e565b61093d565b005b61027e60048036038101906102799190612329565b61095d565b60405161028b9190612397565b60405180910390f35b6102ae60048036038101906102a9919061249b565b6109e3565b6040516102bb9190612480565b60405180910390f35b6102cc610a9a565b6040516102d991906122d1565b60405180910390f35b6102fc60048036038101906102f791906124f4565b610b2c565b005b61031860048036038101906103139190612669565b610b42565b005b610334600480360381019061032f9190612329565b610ba4565b60405161034191906122d1565b60405180910390f35b610364600480360381019061035f9190612329565b610c9c565b60405161037191906122d1565b60405180910390f35b610394600480360381019061038f9190612329565b610dae565b6040516103a191906122d1565b60405180910390f35b6103b2610ea6565b6040516103bf91906122d1565b60405180910390f35b6103e260048036038101906103dd91906126ec565b610f34565b6040516103ef9190612226565b60405180910390f35b6000634906490660e01b7bffffffffffffffffffffffffffffffffffffffffffffffffffffffff1916827bffffffffffffffffffffffffffffffffffffffffffffffffffffffff19161480610452575061045182610fc8565b5b9050919050565b6060600080546104689061275b565b80601f01602080910402602001604051908101604052809291908181526020018280546104949061275b565b80156104e15780601f106104b6576101008083540402835291602001916104e1565b820191906000526020600020905b8154815290600101906020018083116104c457829003601f168201915b5050505050905090565b60006104f6826110aa565b6004600083815260200190815260200160002060009054906101000a900473ffffffffffffffffffffffffffffffffffffffff169050919050565b600061053c8261095d565b90508073ffffffffffffffffffffffffffffffffffffffff168373ffffffffffffffffffffffffffffffffffffffff16036105ac576040517f08c379a00000000000000000000000000000000000000000000000000000000081526004016105a3906127fe565b60405180910390fd5b8073ffffffffffffffffffffffffffffffffffffffff166105cb6110f5565b73ffffffffffffffffffffffffffffffffffffffff1614806105fa57506105f9816105f46110f5565b610f34565b5b610639576040517f08c379a000000000000000000000000000000000000000000000000000000000815260040161063090612890565b60405180910390fd5b61064383836110fd565b505050565b6106596106536110f5565b826111b6565b610698576040517f08c379a000000000000000000000000000000000000000000000000000000000815260040161068f90612922565b60405180910390fd5b6106a383838361124b565b505050565b600980546106b59061275b565b80601f01602080910402602001604051908101604052809291908181526020018280546106e19061275b565b801561072e5780601f106107035761010080835404028352916020019161072e565b820191906000526020600020905b81548152906001019060200180831161071157829003601f168201915b505050505081565b6000806107436007611544565b9050600061075082610845565b9050600061075d83610ba4565b9050600061076a84610dae565b905060008383836040516020016107839392919061297e565b60405160208183030381529060405290506000600a8585856040516020016107ae9493929190612a93565b604051602081830303815290604052905060006107f3836107ce84611552565b6040516020016107df929190612c32565b604051602081830303815290604052611552565b90506000816040516020016108089190612cc3565b604051602081830303815290604052905061082333896116e9565b61082d8882611707565b61083760076117ab565b879850505050505050505090565b60606000610879610855846117c1565b6040516020016108659190612d31565b60405160208183030381529060405261188f565b9050600b805490508161088c9190612d82565b9050600b81815481106108a2576108a1612db3565b5b9060005260206000200180546108b79061275b565b80601f01602080910402602001604051908101604052809291908181526020018280546108e39061275b565b80156109305780601f1061090557610100808354040283529160200191610930565b820191906000526020600020905b81548152906001019060200180831161091357829003601f168201915b5050505050915050919050565b61095883838360405180602001604052806000815250610b42565b505050565b600080610969836118c2565b9050600073ffffffffffffffffffffffffffffffffffffffff168173ffffffffffffffffffffffffffffffffffffffff16036109da576040517f08c379a00000000000000000000000000000000000000000000000000000000081526004016109d190612e2e565b60405180910390fd5b80915050919050565b60008073ffffffffffffffffffffffffffffffffffffffff168273ffffffffffffffffffffffffffffffffffffffff1603610a53576040517f08c379a0000000000000000000000000000000000000000000000000000000008152600401610a4a90612ec0565b60405180910390fd5b600360008373ffffffffffffffffffffffffffffffffffffffff1673ffffffffffffffffffffffffffffffffffffffff168152602001908152602001600020549050919050565b606060018054610aa99061275b565b80601f0160208091040260200160405190810160405280929190818152602001828054610ad59061275b565b8015610b225780601f10610af757610100808354040283529160200191610b22565b820191906000526020600020905b815481529060010190602001808311610b0557829003601f168201915b5050505050905090565b610b3e610b376110f5565b83836118ff565b5050565b610b53610b4d6110f5565b836111b6565b610b92576040517f08c379a0000000000000000000000000000000000000000000000000000000008152600401610b8990612922565b60405180910390fd5b610b9e84848484611a6b565b50505050565b60606000610bd8610bb4846117c1565b604051602001610bc49190612f2c565b60405160208183030381529060405261188f565b9050600c8054905081610beb9190612d82565b9050600c8181548110610c0157610c00612db3565b5b906000526020600020018054610c169061275b565b80601f0160208091040260200160405190810160405280929190818152602001828054610c429061275b565b8015610c8f5780601f10610c6457610100808354040283529160200191610c8f565b820191906000526020600020905b815481529060010190602001808311610c7257829003601f168201915b5050505050915050919050565b6060610ca7826110aa565b6000600660008481526020019081526020016000208054610cc79061275b565b80601f0160208091040260200160405190810160405280929190818152602001828054610cf39061275b565b8015610d405780601f10610d1557610100808354040283529160200191610d40565b820191906000526020600020905b815481529060010190602001808311610d2357829003601f168201915b505050505090506000610d51611ac7565b90506000815103610d66578192505050610da9565b600082511115610d9b578082604051602001610d83929190612f4e565b60405160208183030381529060405292505050610da9565b610da484611ade565b925050505b919050565b60606000610de2610dbe846117c1565b604051602001610dce9190612fbe565b60405160208183030381529060405261188f565b9050600d8054905081610df59190612d82565b9050600d8181548110610e0b57610e0a612db3565b5b906000526020600020018054610e209061275b565b80601f0160208091040260200160405190810160405280929190818152602001828054610e4c9061275b565b8015610e995780601f10610e6e57610100808354040283529160200191610e99565b820191906000526020600020905b815481529060010190602001808311610e7c57829003601f168201915b5050505050915050919050565b60088054610eb39061275b565b80601f0160208091040260200160405190810160405280929190818152602001828054610edf9061275b565b8015610f2c5780601f10610f0157610100808354040283529160200191610f2c565b820191906000526020600020905b815481529060010190602001808311610f0f57829003601f168201915b505050505081565b6000600560008473ffffffffffffffffffffffffffffffffffffffff1673ffffffffffffffffffffffffffffffffffffffff16815260200190815260200160002060008373ffffffffffffffffffffffffffffffffffffffff1673ffffffffffffffffffffffffffffffffffffffff16815260200190815260200160002060009054906101000a900460ff16905092915050565b60007f80ac58cd000000000000000000000000000000000000000000000000000000007bffffffffffffffffffffffffffffffffffffffffffffffffffffffff1916827bffffffffffffffffffffffffffffffffffffffffffffffffffffffff1916148061109357507f5b5e139f000000000000000000000000000000000000000000000000000000007bffffffffffffffffffffffffffffffffffffffffffffffffffffffff1916827bffffffffffffffffffffffffffffffffffffffffffffffffffffffff1916145b806110a357506110a282611b46565b5b9050919050565b6110b381611bb0565b6110f2576040517f08c379a00000000000000000000000000000000000000000000000000000000081526004016110e990612e2e565b60405180910390fd5b50565b600033905090565b816004600083815260200190815260200160002060006101000a81548173ffffffffffffffffffffffffffffffffffffffff021916908373ffffffffffffffffffffffffffffffffffffffff160217905550808273ffffffffffffffffffffffffffffffffffffffff166111708361095d565b73ffffffffffffffffffffffffffffffffffffffff167f8c5be1e5ebec7d5bd14f71427d1e84f3dd0314c0f7b2291e5b200ac8c7c3b92560405160405180910390a45050565b6000806111c28361095d565b90508073ffffffffffffffffffffffffffffffffffffffff168473ffffffffffffffffffffffffffffffffffffffff16148061120457506112038185610f34565b5b8061124257508373ffffffffffffffffffffffffffffffffffffffff1661122a846104eb565b73ffffffffffffffffffffffffffffffffffffffff16145b91505092915050565b8273ffffffffffffffffffffffffffffffffffffffff1661126b8261095d565b73ffffffffffffffffffffffffffffffffffffffff16146112c1576040517f08c379a00000000000000000000000000000000000000000000000000000000081526004016112b890613052565b60405180910390fd5b600073ffffffffffffffffffffffffffffffffffffffff168273ffffffffffffffffffffffffffffffffffffffff1603611330576040517f08c379a0000000000000000000000000000000000000000000000000000000008152600401611327906130e4565b60405180910390fd5b61133d8383836001611bf1565b8273ffffffffffffffffffffffffffffffffffffffff1661135d8261095d565b73ffffffffffffffffffffffffffffffffffffffff16146113b3576040517f08c379a00000000000000000000000000000000000000000000000000000000081526004016113aa90613052565b60405180910390fd5b6004600082815260200190815260200160002060006101000a81549073ffffffffffffffffffffffffffffffffffffffff02191690556001600360008573ffffffffffffffffffffffffffffffffffffffff1673ffffffffffffffffffffffffffffffffffffffff168152602001908152602001600020600082825403925050819055506001600360008473ffffffffffffffffffffffffffffffffffffffff1673ffffffffffffffffffffffffffffffffffffffff16815260200190815260200160002060008282540192505081905550816002600083815260200190815260200160002060006101000a81548173ffffffffffffffffffffffffffffffffffffffff021916908373ffffffffffffffffffffffffffffffffffffffff160217905550808273ffffffffffffffffffffffffffffffffffffffff168473ffffffffffffffffffffffffffffffffffffffff167fddf252ad1be2c89b69c2b068fc378daa952ba7f163c4a11628f55a4df523b3ef60405160405180910390a461153f8383836001611bf7565b505050565b600081600001549050919050565b60606000825190506000810361157a57604051806020016040528060008152509150506116e4565b6000600360028361158b9190613133565b6115959190613167565b60046115a19190613198565b905060006020826115b29190613133565b67ffffffffffffffff8111156115cb576115ca61253e565b5b6040519080825280601f01601f1916602001820160405280156115fd5781602001600182028036833780820191505090505b50905060006040518060600160405280604081526020016137a6604091399050600181016020830160005b868110156116a15760038101905062ffffff818a015116603f8160121c168401518060081b905060ff603f83600c1c1686015116810190508060081b905060ff603f8360061c1686015116810190508060081b905060ff603f831686015116810190508060e01b90508084526004840193505050611628565b5060038606600181146116bb57600281146116cb576116d6565b613d3d60f01b60028303526116d6565b603d60f81b60018303525b508484525050819450505050505b919050565b611703828260405180602001604052806000815250611bfd565b5050565b61171082611bb0565b61174f576040517f08c379a00000000000000000000000000000000000000000000000000000000081526004016117469061324c565b60405180910390fd5b8060066000848152602001908152602001600020908161176f9190613403565b507ff8e1a15aba9398e019f0b49df1a4fde98ee17ae345cb5f6b5e2c27f5033e8ce78260405161179f9190612480565b60405180910390a15050565b6001816000016000828254019250508190555050565b6060600060016117d084611c58565b01905060008167ffffffffffffffff8111156117ef576117ee61253e565b5b6040519080825280601f01601f1916602001820160405280156118215781602001600182028036833780820191505090505b509050600082602001820190505b600115611884578080600190039150507f3031323334353637383961626364656600000000000000000000000000000000600a86061a8153600a858161187857611877612d53565b5b0494506000850361182f575b819350505050919050565b6000816040516020016118a291906134d5565b6040516020818303038152906040528051906020012060001c9050919050565b60006002600083815260200190815260200160002060009054906101000a900473ffffffffffffffffffffffffffffffffffffffff169050919050565b8173ffffffffffffffffffffffffffffffffffffffff168373ffffffffffffffffffffffffffffffffffffffff160361196d576040517f08c379a000000000000000000000000000000000000000000000000000000000815260040161196490613538565b60405180910390fd5b80600560008573ffffffffffffffffffffffffffffffffffffffff1673ffffffffffffffffffffffffffffffffffffffff16815260200190815260200160002060008473ffffffffffffffffffffffffffffffffffffffff1673ffffffffffffffffffffffffffffffffffffffff16815260200190815260200160002060006101000a81548160ff0219169083151502179055508173ffffffffffffffffffffffffffffffffffffffff168373ffffffffffffffffffffffffffffffffffffffff167f17307eab39ab6107e8899845ad3d59bd9653f200f220920489ca2b5937696c3183604051611a5e9190612226565b60405180910390a3505050565b611a7684848461124b565b611a8284848484611dab565b611ac1576040517f08c379a0000000000000000000000000000000000000000000000000000000008152600401611ab8906135ca565b60405180910390fd5b50505050565b606060405180602001604052806000815250905090565b6060611ae9826110aa565b6000611af3611ac7565b90506000815111611b135760405180602001604052806000815250611b3e565b80611b1d846117c1565b604051602001611b2e929190612f4e565b6040516020818303038152906040525b915050919050565b60007f01ffc9a7000000000000000000000000000000000000000000000000000000007bffffffffffffffffffffffffffffffffffffffffffffffffffffffff1916827bffffffffffffffffffffffffffffffffffffffffffffffffffffffff1916149050919050565b60008073ffffffffffffffffffffffffffffffffffffffff16611bd2836118c2565b73ffffffffffffffffffffffffffffffffffffffff1614159050919050565b50505050565b50505050565b611c078383611f32565b611c146000848484611dab565b611c53576040517f08c379a0000000000000000000000000000000000000000000000000000000008152600401611c4a906135ca565b60405180910390fd5b505050565b600080600090507a184f03e93ff9f4daa797ed6e38ed64bf6a1f0100000000000000008310611cb6577a184f03e93ff9f4daa797ed6e38ed64bf6a1f0100000000000000008381611cac57611cab612d53565b5b0492506040810190505b6d04ee2d6d415b85acef81000000008310611cf3576d04ee2d6d415b85acef81000000008381611ce957611ce8612d53565b5b0492506020810190505b662386f26fc100008310611d2257662386f26fc100008381611d1857611d17612d53565b5b0492506010810190505b6305f5e1008310611d4b576305f5e1008381611d4157611d40612d53565b5b0492506008810190505b6127108310611d70576127108381611d6657611d65612d53565b5b0492506004810190505b60648310611d935760648381611d8957611d88612d53565b5b0492506002810190505b600a8310611da2576001810190505b80915050919050565b6000611dcc8473ffffffffffffffffffffffffffffffffffffffff1661214f565b15611f25578373ffffffffffffffffffffffffffffffffffffffff1663150b7a02611df56110f5565b8786866040518563ffffffff1660e01b8152600401611e17949392919061363f565b6020604051808303816000875af1925050508015611e5357506040513d601f19601f82011682018060405250810190611e5091906136a0565b60015b611ed5573d8060008114611e83576040519150601f19603f3d011682016040523d82523d6000602084013e611e88565b606091505b506000815103611ecd576040517f08c379a0000000000000000000000000000000000000000000000000000000008152600401611ec4906135ca565b60405180910390fd5b805181602001fd5b63150b7a0260e01b7bffffffffffffffffffffffffffffffffffffffffffffffffffffffff1916817bffffffffffffffffffffffffffffffffffffffffffffffffffffffff191614915050611f2a565b600190505b949350505050565b600073ffffffffffffffffffffffffffffffffffffffff168273ffffffffffffffffffffffffffffffffffffffff1603611fa1576040517f08c379a0000000000000000000000000000000000000000000000000000000008152600401611f9890613719565b60405180910390fd5b611faa81611bb0565b15611fea576040517f08c379a0000000000000000000000000000000000000000000000000000000008152600401611fe190613785565b60405180910390fd5b611ff8600083836001611bf1565b61200181611bb0565b15612041576040517f08c379a000000000000000000000000000000000000000000000000000000000815260040161203890613785565b60405180910390fd5b6001600360008473ffffffffffffffffffffffffffffffffffffffff1673ffffffffffffffffffffffffffffffffffffffff16815260200190815260200160002060008282540192505081905550816002600083815260200190815260200160002060006101000a81548173ffffffffffffffffffffffffffffffffffffffff021916908373ffffffffffffffffffffffffffffffffffffffff160217905550808273ffffffffffffffffffffffffffffffffffffffff16600073ffffffffffffffffffffffffffffffffffffffff167fddf252ad1be2c89b69c2b068fc378daa952ba7f163c4a11628f55a4df523b3ef60405160405180910390a461214b600083836001611bf7565b5050565b6000808273ffffffffffffffffffffffffffffffffffffffff163b119050919050565b6000604051905090565b600080fd5b600080fd5b60007fffffffff0000000000000000000000000000000000000000000000000000000082169050919050565b6121bb81612186565b81146121c657600080fd5b50565b6000813590506121d8816121b2565b92915050565b6000602082840312156121f4576121f361217c565b5b6000612202848285016121c9565b91505092915050565b60008115159050919050565b6122208161220b565b82525050565b600060208201905061223b6000830184612217565b92915050565b600081519050919050565b600082825260208201905092915050565b60005b8381101561227b578082015181840152602081019050612260565b60008484015250505050565b6000601f19601f8301169050919050565b60006122a382612241565b6122ad818561224c565b93506122bd81856020860161225d565b6122c681612287565b840191505092915050565b600060208201905081810360008301526122eb8184612298565b905092915050565b6000819050919050565b612306816122f3565b811461231157600080fd5b50565b600081359050612323816122fd565b92915050565b60006020828403121561233f5761233e61217c565b5b600061234d84828501612314565b91505092915050565b600073ffffffffffffffffffffffffffffffffffffffff82169050919050565b600061238182612356565b9050919050565b61239181612376565b82525050565b60006020820190506123ac6000830184612388565b92915050565b6123bb81612376565b81146123c657600080fd5b50565b6000813590506123d8816123b2565b92915050565b600080604083850312156123f5576123f461217c565b5b6000612403858286016123c9565b925050602061241485828601612314565b9150509250929050565b6000806000606084860312156124375761243661217c565b5b6000612445868287016123c9565b9350506020612456868287016123c9565b925050604061246786828701612314565b9150509250925092565b61247a816122f3565b82525050565b60006020820190506124956000830184612471565b92915050565b6000602082840312156124b1576124b061217c565b5b60006124bf848285016123c9565b91505092915050565b6124d18161220b565b81146124dc57600080fd5b50565b6000813590506124ee816124c8565b92915050565b6000806040838503121561250b5761250a61217c565b5b6000612519858286016123c9565b925050602061252a858286016124df565b9150509250929050565b600080fd5b600080fd5b7f4e487b7100000000000000000000000000000000000000000000000000000000600052604160045260246000fd5b61257682612287565b810181811067ffffffffffffffff821117156125955761259461253e565b5b80604052505050565b60006125a8612172565b90506125b4828261256d565b919050565b600067ffffffffffffffff8211156125d4576125d361253e565b5b6125dd82612287565b9050602081019050919050565b82818337600083830152505050565b600061260c612607846125b9565b61259e565b90508281526020810184848401111561262857612627612539565b5b6126338482856125ea565b509392505050565b600082601f8301126126505761264f612534565b5b81356126608482602086016125f9565b91505092915050565b600080600080608085870312156126835761268261217c565b5b6000612691878288016123c9565b94505060206126a2878288016123c9565b93505060406126b387828801612314565b925050606085013567ffffffffffffffff8111156126d4576126d3612181565b5b6126e08782880161263b565b91505092959194509250565b600080604083850312156127035761270261217c565b5b6000612711858286016123c9565b9250506020612722858286016123c9565b9150509250929050565b7f4e487b7100000000000000000000000000000000000000000000000000000000600052602260045260246000fd5b6000600282049050600182168061277357607f821691505b6020821081036127865761278561272c565b5b50919050565b7f4552433732313a20617070726f76616c20746f2063757272656e74206f776e6560008201527f7200000000000000000000000000000000000000000000000000000000000000602082015250565b60006127e860218361224c565b91506127f38261278c565b604082019050919050565b60006020820190508181036000830152612817816127db565b9050919050565b7f4552433732313a20617070726f76652063616c6c6572206973206e6f7420746f60008201527f6b656e206f776e6572206f7220617070726f76656420666f7220616c6c000000602082015250565b600061287a603d8361224c565b91506128858261281e565b604082019050919050565b600060208201905081810360008301526128a98161286d565b9050919050565b7f4552433732313a2063616c6c6572206973206e6f7420746f6b656e206f776e6560008201527f72206f7220617070726f76656400000000000000000000000000000000000000602082015250565b600061290c602d8361224c565b9150612917826128b0565b604082019050919050565b6000602082019050818103600083015261293b816128ff565b9050919050565b600081905092915050565b600061295882612241565b6129628185612942565b935061297281856020860161225d565b80840191505092915050565b600061298a828661294d565b9150612996828561294d565b91506129a2828461294d565b9150819050949350505050565b60008190508160005260206000209050919050565b600081546129d18161275b565b6129db8186612942565b945060018216600081146129f65760018114612a0b57612a3e565b60ff1983168652811515820286019350612a3e565b612a14856129af565b60005b83811015612a3657815481890152600182019150602081019050612a17565b838801955050505b50505092915050565b7f3c2f746578743e3c2f7376673e00000000000000000000000000000000000000600082015250565b6000612a7d600d83612942565b9150612a8882612a47565b600d82019050919050565b6000612a9f82876129c4565b9150612aab828661294d565b9150612ab7828561294d565b9150612ac3828461294d565b9150612ace82612a70565b915081905095945050505050565b7f7b226e616d65223a202200000000000000000000000000000000000000000000600082015250565b6000612b12600a83612942565b9150612b1d82612adc565b600a82019050919050565b7f222c20226465736372697074696f6e223a20224120686967686c79206163636c60008201527f61696d656420636f6c6c656374696f6e20457465726e616c2057617272696f7260208201527f73222c2022696d616765223a2022646174613a696d6167652f7376672b786d6c60408201527f3b6261736536342c000000000000000000000000000000000000000000000000606082015250565b6000612bd0606883612942565b9150612bdb82612b28565b606882019050919050565b7f227d000000000000000000000000000000000000000000000000000000000000600082015250565b6000612c1c600283612942565b9150612c2782612be6565b600282019050919050565b6000612c3d82612b05565b9150612c49828561294d565b9150612c5482612bc3565b9150612c60828461294d565b9150612c6b82612c0f565b91508190509392505050565b7f646174613a6170706c69636174696f6e2f6a736f6e3b6261736536342c000000600082015250565b6000612cad601d83612942565b9150612cb882612c77565b601d82019050919050565b6000612cce82612ca0565b9150612cda828461294d565b915081905092915050565b7f656c656d656e7400000000000000000000000000000000000000000000000000600082015250565b6000612d1b600783612942565b9150612d2682612ce5565b600782019050919050565b6000612d3c82612d0e565b9150612d48828461294d565b915081905092915050565b7f4e487b7100000000000000000000000000000000000000000000000000000000600052601260045260246000fd5b6000612d8d826122f3565b9150612d98836122f3565b925082612da857612da7612d53565b5b828206905092915050565b7f4e487b7100000000000000000000000000000000000000000000000000000000600052603260045260246000fd5b7f4552433732313a20696e76616c696420746f6b656e2049440000000000000000600082015250565b6000612e1860188361224c565b9150612e2382612de2565b602082019050919050565b60006020820190508181036000830152612e4781612e0b565b9050919050565b7f4552433732313a2061646472657373207a65726f206973206e6f74206120766160008201527f6c6964206f776e65720000000000000000000000000000000000000000000000602082015250565b6000612eaa60298361224c565b9150612eb582612e4e565b604082019050919050565b60006020820190508181036000830152612ed981612e9d565b9050919050565b7f776561706f6e0000000000000000000000000000000000000000000000000000600082015250565b6000612f16600683612942565b9150612f2182612ee0565b600682019050919050565b6000612f3782612f09565b9150612f43828461294d565b915081905092915050565b6000612f5a828561294d565b9150612f66828461294d565b91508190509392505050565b7f72616e6b00000000000000000000000000000000000000000000000000000000600082015250565b6000612fa8600483612942565b9150612fb382612f72565b600482019050919050565b6000612fc982612f9b565b9150612fd5828461294d565b915081905092915050565b7f4552433732313a207472616e736665722066726f6d20696e636f72726563742060008201527f6f776e6572000000000000000000000000000000000000000000000000000000602082015250565b600061303c60258361224c565b915061304782612fe0565b604082019050919050565b6000602082019050818103600083015261306b8161302f565b9050919050565b7f4552433732313a207472616e7366657220746f20746865207a65726f2061646460008201527f7265737300000000000000000000000000000000000000000000000000000000602082015250565b60006130ce60248361224c565b91506130d982613072565b604082019050919050565b600060208201905081810360008301526130fd816130c1565b9050919050565b7f4e487b7100000000000000000000000000000000000000000000000000000000600052601160045260246000fd5b600061313e826122f3565b9150613149836122f3565b925082820190508082111561316157613160613104565b5b92915050565b6000613172826122f3565b915061317d836122f3565b92508261318d5761318c612d53565b5b828204905092915050565b60006131a3826122f3565b91506131ae836122f3565b92508282026131bc816122f3565b915082820484148315176131d3576131d2613104565b5b5092915050565b7f45524337323155524953746f726167653a2055524920736574206f66206e6f6e60008201527f6578697374656e7420746f6b656e000000000000000000000000000000000000602082015250565b6000613236602e8361224c565b9150613241826131da565b604082019050919050565b6000602082019050818103600083015261326581613229565b9050919050565b60006020601f8301049050919050565b600082821b905092915050565b6000600883026132b97fffffffffffffffffffffffffffffffffffffffffffffffffffffffffffffffff8261327c565b6132c3868361327c565b95508019841693508086168417925050509392505050565b6000819050919050565b60006133006132fb6132f6846122f3565b6132db565b6122f3565b9050919050565b6000819050919050565b61331a836132e5565b61332e61332682613307565b848454613289565b825550505050565b600090565b613343613336565b61334e818484613311565b505050565b5b818110156133725761336760008261333b565b600181019050613354565b5050565b601f8211156133b757613388816129af565b6133918461326c565b810160208510156133a0578190505b6133b46133ac8561326c565b830182613353565b50505b505050565b600082821c905092915050565b60006133da600019846008026133bc565b1980831691505092915050565b60006133f383836133c9565b9150826002028217905092915050565b61340c82612241565b67ffffffffffffffff8111156134255761342461253e565b5b61342f825461275b565b61343a828285613376565b600060209050601f83116001811461346d576000841561345b578287015190505b61346585826133e7565b8655506134cd565b601f19841661347b866129af565b60005b828110156134a35784890151825560018201915060208501945060208101905061347e565b868310156134c057848901516134bc601f8916826133c9565b8355505b6001600288020188555050505b505050505050565b60006134e1828461294d565b915081905092915050565b7f4552433732313a20617070726f766520746f2063616c6c657200000000000000600082015250565b600061352260198361224c565b915061352d826134ec565b602082019050919050565b6000602082019050818103600083015261355181613515565b9050919050565b7f4552433732313a207472616e7366657220746f206e6f6e20455243373231526560008201527f63656976657220696d706c656d656e7465720000000000000000000000000000602082015250565b60006135b460328361224c565b91506135bf82613558565b604082019050919050565b600060208201905081810360008301526135e3816135a7565b9050919050565b600081519050919050565b600082825260208201905092915050565b6000613611826135ea565b61361b81856135f5565b935061362b81856020860161225d565b61363481612287565b840191505092915050565b60006080820190506136546000830187612388565b6136616020830186612388565b61366e6040830185612471565b81810360608301526136808184613606565b905095945050505050565b60008151905061369a816121b2565b92915050565b6000602082840312156136b6576136b561217c565b5b60006136c48482850161368b565b91505092915050565b7f4552433732313a206d696e7420746f20746865207a65726f2061646472657373600082015250565b600061370360208361224c565b915061370e826136cd565b602082019050919050565b60006020820190508181036000830152613732816136f6565b9050919050565b7f4552433732313a20746f6b656e20616c7265616479206d696e74656400000000600082015250565b600061376f601c8361224c565b915061377a82613739565b602082019050919050565b6000602082019050818103600083015261379e81613762565b905091905056fe4142434445464748494a4b4c4d4e4f505152535455565758595a6162636465666768696a6b6c6d6e6f707172737475767778797a303132333435363738392b2fa264697066735822122009a34e89bdded742d4b742e1a14181c73d2bebf50789da0af5a532a5ef8d3a2d64736f6c634300081300333c73766720786d6c6e733d27687474703a2f2f7777772e77332e6f72672f323030302f73766727207072657365727665417370656374526174696f3d27784d696e594d696e206d656574272076696577426f783d273020302033353020333530273e3c7374796c653e2e62617365207b2066696c6c3a2077686974653b20666f6e742d66616d696c793a2073657269663b20666f6e742d73697a653a20323470783b207d3c2f7374796c653e3c726563742077696474683d273130302527206865696768743d2731303025272066696c6c3d27626c61636b27202f3e3c7465787420783d273530252720793d273530252720636c6173733d27626173652720646f6d696e616e742d626173656c696e653d276d6964646c652720746578742d616e63686f723d276d6964646c65273e",
  "linkReferences": {},
  "deployedLinkReferences": {}
}